{
  "contractName": "ZombieAttack",
  "abi": [
    {
      "anonymous": false,
      "inputs": [
        {
          "indexed": false,
          "internalType": "uint256",
          "name": "zombieId",
          "type": "uint256"
        },
        {
          "indexed": false,
          "internalType": "string",
          "name": "name",
          "type": "string"
        },
        {
          "indexed": false,
          "internalType": "uint256",
          "name": "dna",
          "type": "uint256"
        }
      ],
      "name": "NewZombie",
      "type": "event"
    },
    {
      "anonymous": false,
      "inputs": [
        {
          "indexed": true,
          "internalType": "address",
          "name": "previousOwner",
          "type": "address"
        },
        {
          "indexed": true,
          "internalType": "address",
          "name": "newOwner",
          "type": "address"
        }
      ],
      "name": "OwnershipTransferred",
      "type": "event"
    },
    {
      "inputs": [
        {
          "internalType": "uint256",
          "name": "_zombieId",
          "type": "uint256"
        },
        {
          "internalType": "uint256",
          "name": "_newDna",
          "type": "uint256"
        }
      ],
      "name": "changeDna",
      "outputs": [],
      "stateMutability": "nonpayable",
      "type": "function"
    },
    {
      "inputs": [
        {
          "internalType": "uint256",
          "name": "_zombieId",
          "type": "uint256"
        },
        {
          "internalType": "string",
          "name": "_newName",
          "type": "string"
        }
      ],
      "name": "changeName",
      "outputs": [],
      "stateMutability": "nonpayable",
      "type": "function"
    },
    {
      "inputs": [
        {
          "internalType": "string",
          "name": "_name",
          "type": "string"
        }
      ],
      "name": "createRandomZombie",
      "outputs": [],
      "stateMutability": "nonpayable",
      "type": "function"
    },
    {
      "inputs": [
        {
          "internalType": "uint256",
          "name": "_zombieId",
          "type": "uint256"
        },
        {
          "internalType": "uint256",
          "name": "_kittyId",
          "type": "uint256"
        }
      ],
      "name": "feedOnKitty",
      "outputs": [],
      "stateMutability": "nonpayable",
      "type": "function"
    },
    {
      "inputs": [
        {
          "internalType": "address",
          "name": "_owner",
          "type": "address"
        }
      ],
      "name": "getZombiesByOwner",
      "outputs": [
        {
          "internalType": "uint256[]",
          "name": "",
          "type": "uint256[]"
        }
      ],
      "stateMutability": "view",
      "type": "function"
    },
    {
      "inputs": [],
      "name": "isOwner",
      "outputs": [
        {
          "internalType": "bool",
          "name": "",
          "type": "bool"
        }
      ],
      "stateMutability": "view",
      "type": "function"
    },
    {
      "inputs": [
        {
          "internalType": "uint256",
          "name": "_zombieId",
          "type": "uint256"
        }
      ],
      "name": "levelUp",
      "outputs": [],
      "stateMutability": "payable",
      "type": "function"
    },
    {
      "inputs": [],
      "name": "owner",
      "outputs": [
        {
          "internalType": "address",
          "name": "",
          "type": "address"
        }
      ],
      "stateMutability": "view",
      "type": "function"
    },
    {
      "inputs": [],
      "name": "renounceOwnership",
      "outputs": [],
      "stateMutability": "nonpayable",
      "type": "function"
    },
    {
      "inputs": [
        {
          "internalType": "address",
          "name": "_address",
          "type": "address"
        }
      ],
      "name": "setKittyContractAddress",
      "outputs": [],
      "stateMutability": "nonpayable",
      "type": "function"
    },
    {
      "inputs": [
        {
          "internalType": "uint256",
          "name": "_fee",
          "type": "uint256"
        }
      ],
      "name": "setLevelUpFee",
      "outputs": [],
      "stateMutability": "nonpayable",
      "type": "function"
    },
    {
      "inputs": [
        {
          "internalType": "address",
          "name": "newOwner",
          "type": "address"
        }
      ],
      "name": "transferOwnership",
      "outputs": [],
      "stateMutability": "nonpayable",
      "type": "function"
    },
    {
      "inputs": [],
      "name": "withdraw",
      "outputs": [],
      "stateMutability": "nonpayable",
      "type": "function"
    },
    {
      "inputs": [
        {
          "internalType": "uint256",
          "name": "",
          "type": "uint256"
        }
      ],
      "name": "zombieToOwner",
      "outputs": [
        {
          "internalType": "address",
          "name": "",
          "type": "address"
        }
      ],
      "stateMutability": "view",
      "type": "function"
    },
    {
      "inputs": [
        {
          "internalType": "uint256",
          "name": "",
          "type": "uint256"
        }
      ],
      "name": "zombies",
      "outputs": [
        {
          "internalType": "string",
          "name": "name",
          "type": "string"
        },
        {
          "internalType": "uint256",
          "name": "dna",
          "type": "uint256"
        },
        {
          "internalType": "uint32",
          "name": "level",
          "type": "uint32"
        },
        {
          "internalType": "uint32",
          "name": "readyTime",
          "type": "uint32"
        },
        {
          "internalType": "uint16",
          "name": "winCount",
          "type": "uint16"
        },
        {
          "internalType": "uint16",
          "name": "lossCount",
          "type": "uint16"
        }
      ],
      "stateMutability": "view",
      "type": "function"
    },
    {
      "inputs": [
        {
          "internalType": "uint256",
          "name": "_zombieId",
          "type": "uint256"
        },
        {
          "internalType": "uint256",
          "name": "_targetId",
          "type": "uint256"
        }
      ],
      "name": "attack",
      "outputs": [],
      "stateMutability": "nonpayable",
      "type": "function"
    }
  ],
  "bytecode": "0x60806040526010600155600154600a6200001a919062000295565b6002556201518060035566038d7ea4c6800060085560006009556046600a553480156200004657600080fd5b50336000806101000a81548173ffffffffffffffffffffffffffffffffffffffff021916908373ffffffffffffffffffffffffffffffffffffffff16021790555060008054906101000a900473ffffffffffffffffffffffffffffffffffffffff1673ffffffffffffffffffffffffffffffffffffffff16600073ffffffffffffffffffffffffffffffffffffffff167f8be0079c531659141344cd1fd0a4f28419497f9722a3daafe3b4186f6b6457e060405160405180910390a3620002e6565b7f4e487b7100000000000000000000000000000000000000000000000000000000600052601160045260246000fd5b60008160011c9050919050565b6000808291508390505b600185111562000196578086048111156200016e576200016d62000108565b5b60018516156200017e5780820291505b80810290506200018e8562000137565b94506200014e565b94509492505050565b600082620001b1576001905062000284565b81620001c1576000905062000284565b8160018114620001da5760028114620001e5576200021b565b600191505062000284565b60ff841115620001fa57620001f962000108565b5b8360020a91508482111562000214576200021362000108565b5b5062000284565b5060208310610133831016604e8410600b8410161715620002555782820a9050838111156200024f576200024e62000108565b5b62000284565b62000264848484600162000144565b925090508184048111156200027e576200027d62000108565b5b81810290505b9392505050565b6000819050919050565b6000620002a2826200028b565b9150620002af836200028b565b9250620002de7fffffffffffffffffffffffffffffffffffffffffffffffffffffffffffffffff84846200019f565b905092915050565b6122b280620002f66000396000f3fe6080604052600436106100f35760003560e01c8063715018a61161008a578063c39cbef111610059578063c39cbef1146102f8578063ccf670f814610321578063e1fa76381461034a578063f2fde38b14610373576100f3565b8063715018a6146102625780637bff0a01146102795780638da5cb5b146102a25780638f32d59b146102cd576100f3565b80634412e104116100c65780634412e10414610196578063528b7b8f146101d35780635f4623f1146102105780635faf288014610239576100f3565b80630ce90ec2146100f857806317a7f4cc146101145780632052465e1461013d5780633ccfd60b1461017f575b600080fd5b610112600480360381019061010d9190611725565b61039c565b005b34801561012057600080fd5b5061013b60048036038101906101369190611752565b61043f565b005b34801561014957600080fd5b50610164600480360381019061015f9190611725565b61055d565b60405161017696959493929190611876565b60405180910390f35b34801561018b57600080fd5b5061019461066d565b005b3480156101a257600080fd5b506101bd60048036038101906101b8919061193c565b6106d4565b6040516101ca9190611a27565b60405180910390f35b3480156101df57600080fd5b506101fa60048036038101906101f59190611725565b610826565b6040516102079190611a58565b60405180910390f35b34801561021c57600080fd5b506102376004803603810190610232919061193c565b610859565b005b34801561024557600080fd5b50610260600480360381019061025b9190611752565b6108ae565b005b34801561026e57600080fd5b50610277610996565b005b34801561028557600080fd5b506102a0600480360381019061029b9190611ba8565b610a65565b005b3480156102ae57600080fd5b506102b7610acc565b6040516102c49190611a58565b60405180910390f35b3480156102d957600080fd5b506102e2610af5565b6040516102ef9190611c0c565b60405180910390f35b34801561030457600080fd5b5061031f600480360381019061031a9190611c87565b610b4c565b005b34801561032d57600080fd5b5061034860048036038101906103439190611725565b610c40565b005b34801561035657600080fd5b50610371600480360381019061036c9190611752565b610c5b565b005b34801561037f57600080fd5b5061039a6004803603810190610395919061193c565b610ef5565b005b60085434146103aa57600080fd5b6103f96001600483815481106103c3576103c2611ce7565b5b906000526020600020906003020160020160009054906101000a900463ffffffff1663ffffffff16610f1290919063ffffffff16565b6004828154811061040d5761040c611ce7565b5b906000526020600020906003020160020160006101000a81548163ffffffff021916908363ffffffff16021790555050565b6000600760009054906101000a900473ffffffffffffffffffffffffffffffffffffffff1673ffffffffffffffffffffffffffffffffffffffff1663e98b7f4d836040518263ffffffff1660e01b815260040161049c9190611d16565b61014060405180830381865afa1580156104ba573d6000803e3d6000fd5b505050506040513d601f19601f820116820180604052508101906104de9190611d72565b9091929394959697985090919293949596975090919293949596509091929394955090919293945090919293509091925090915090508091505061055883826040518060400160405280600581526020017f6b69747479000000000000000000000000000000000000000000000000000000815250610f4a565b505050565b6004818154811061056d57600080fd5b906000526020600020906003020160009150905080600001805461059090611e80565b80601f01602080910402602001604051908101604052809291908181526020018280546105bc90611e80565b80156106095780601f106105de57610100808354040283529160200191610609565b820191906000526020600020905b8154815290600101906020018083116105ec57829003601f168201915b5050505050908060010154908060020160009054906101000a900463ffffffff16908060020160049054906101000a900463ffffffff16908060020160089054906101000a900461ffff169080600201600a9054906101000a900461ffff16905086565b610675610af5565b61067e57600080fd5b6000610688610acc565b90508073ffffffffffffffffffffffffffffffffffffffff166108fc479081150290604051600060405180830381858888f193505050501580156106d0573d6000803e3d6000fd5b5050565b60606000600660008473ffffffffffffffffffffffffffffffffffffffff1673ffffffffffffffffffffffffffffffffffffffff1681526020019081526020016000205467ffffffffffffffff81111561073157610730611a7d565b5b60405190808252806020026020018201604052801561075f5781602001602082028036833780820191505090505b5090506000805b60048054905081101561081b578473ffffffffffffffffffffffffffffffffffffffff166005600083815260200190815260200160002060009054906101000a900473ffffffffffffffffffffffffffffffffffffffff1673ffffffffffffffffffffffffffffffffffffffff160361080857808383815181106107ed576107ec611ce7565b5b602002602001018181525050818061080490611ee0565b9250505b808061081390611ee0565b915050610766565b508192505050919050565b60056020528060005260406000206000915054906101000a900473ffffffffffffffffffffffffffffffffffffffff1681565b610861610af5565b61086a57600080fd5b80600760006101000a81548173ffffffffffffffffffffffffffffffffffffffff021916908373ffffffffffffffffffffffffffffffffffffffff16021790555050565b60148281600482815481106108c6576108c5611ce7565b5b906000526020600020906003020160020160009054906101000a900463ffffffff1663ffffffff1610156108f957600080fd5b836005600082815260200190815260200160002060009054906101000a900473ffffffffffffffffffffffffffffffffffffffff1673ffffffffffffffffffffffffffffffffffffffff163373ffffffffffffffffffffffffffffffffffffffff161461096557600080fd5b836004868154811061097a57610979611ce7565b5b9060005260206000209060030201600101819055505050505050565b61099e610af5565b6109a757600080fd5b600073ffffffffffffffffffffffffffffffffffffffff1660008054906101000a900473ffffffffffffffffffffffffffffffffffffffff1673ffffffffffffffffffffffffffffffffffffffff167f8be0079c531659141344cd1fd0a4f28419497f9722a3daafe3b4186f6b6457e060405160405180910390a360008060006101000a81548173ffffffffffffffffffffffffffffffffffffffff021916908373ffffffffffffffffffffffffffffffffffffffff160217905550565b6000600660003373ffffffffffffffffffffffffffffffffffffffff1673ffffffffffffffffffffffffffffffffffffffff1681526020019081526020016000205414610ab157600080fd5b6000610abc826110e6565b9050610ac8828261112b565b5050565b60008060009054906101000a900473ffffffffffffffffffffffffffffffffffffffff16905090565b60008060009054906101000a900473ffffffffffffffffffffffffffffffffffffffff1673ffffffffffffffffffffffffffffffffffffffff163373ffffffffffffffffffffffffffffffffffffffff1614905090565b6002838160048281548110610b6457610b63611ce7565b5b906000526020600020906003020160020160009054906101000a900463ffffffff1663ffffffff161015610b9757600080fd5b846005600082815260200190815260200160002060009054906101000a900473ffffffffffffffffffffffffffffffffffffffff1673ffffffffffffffffffffffffffffffffffffffff163373ffffffffffffffffffffffffffffffffffffffff1614610c0357600080fd5b848460048881548110610c1957610c18611ce7565b5b90600052602060002090600302016000019190610c379291906115b2565b50505050505050565b610c48610af5565b610c5157600080fd5b8060088190555050565b816005600082815260200190815260200160002060009054906101000a900473ffffffffffffffffffffffffffffffffffffffff1673ffffffffffffffffffffffffffffffffffffffff163373ffffffffffffffffffffffffffffffffffffffff1614610cc757600080fd5b600060048481548110610cdd57610cdc611ce7565b5b90600052602060002090600302019050600060048481548110610d0357610d02611ce7565b5b906000526020600020906003020190506000610d1f60646113a2565b9050600a548111610e5357610d5460018460020160089054906101000a900461ffff1661ffff1661140290919063ffffffff16565b8360020160086101000a81548161ffff021916908361ffff160217905550610da060018460020160009054906101000a900463ffffffff1663ffffffff16610f1290919063ffffffff16565b8360020160006101000a81548163ffffffff021916908363ffffffff160217905550610dec600183600201600a9054906101000a900461ffff1661ffff1661140290919063ffffffff16565b82600201600a6101000a81548161ffff021916908361ffff160217905550610e4e8683600101546040518060400160405280600681526020017f7a6f6d6269650000000000000000000000000000000000000000000000000000815250610f4a565b610eed565b610e7d600184600201600a9054906101000a900461ffff1661ffff1661140290919063ffffffff16565b83600201600a6101000a81548161ffff021916908361ffff160217905550610ec560018360020160089054906101000a900461ffff1661ffff1661140290919063ffffffff16565b8260020160086101000a81548161ffff021916908361ffff160217905550610eec83611436565b5b505050505050565b610efd610af5565b610f0657600080fd5b610f0f81611469565b50565b6000808284610f219190611f28565b90508363ffffffff168163ffffffff161015610f4057610f3f611f62565b5b8091505092915050565b826005600082815260200190815260200160002060009054906101000a900473ffffffffffffffffffffffffffffffffffffffff1673ffffffffffffffffffffffffffffffffffffffff163373ffffffffffffffffffffffffffffffffffffffff1614610fb657600080fd5b600060048581548110610fcc57610fcb611ce7565b5b90600052602060002090600302019050610fe58161155f565b610fee57600080fd5b60025484610ffc9190611fc0565b9350600060028583600101546110129190611ff1565b61101c9190612047565b905060405160200161102d906120cf565b60405160208183030381529060405280519060200120846040516020016110549190612115565b604051602081830303815290604052805190602001200361109657606360648261107e9190611fc0565b82611089919061212c565b6110939190611ff1565b90505b6110d56040518060400160405280600681526020017f4e6f4e616d6500000000000000000000000000000000000000000000000000008152508261112b565b6110de82611436565b505050505050565b600080826040516020016110fa9190612115565b6040516020818303038152906040528051906020012060001c9050600254816111239190611fc0565b915050919050565b60046040518060c00160405280848152602001838152602001600163ffffffff1681526020016003544261115f9190611ff1565b63ffffffff168152602001600061ffff168152602001600061ffff16815250908060018154018082558091505060019003906000526020600020906003020160009091909190915060008201518160000190805190602001906111c3929190611638565b506020820151816001015560408201518160020160006101000a81548163ffffffff021916908363ffffffff16021790555060608201518160020160046101000a81548163ffffffff021916908363ffffffff16021790555060808201518160020160086101000a81548161ffff021916908361ffff16021790555060a082015181600201600a6101000a81548161ffff021916908361ffff160217905550505060006001600480549050611278919061212c565b9050336005600083815260200190815260200160002060006101000a81548173ffffffffffffffffffffffffffffffffffffffff021916908373ffffffffffffffffffffffffffffffffffffffff16021790555061131f6001600660003373ffffffffffffffffffffffffffffffffffffffff1673ffffffffffffffffffffffffffffffffffffffff1681526020019081526020016000205461158690919063ffffffff16565b600660003373ffffffffffffffffffffffffffffffffffffffff1673ffffffffffffffffffffffffffffffffffffffff168152602001908152602001600020819055507f88f026aacbbecc90c18411df4b1185fd8d9be2470f1962f192bf84a27d0704b781848460405161139593929190612160565b60405180910390a1505050565b60006113ba600160095461158690919063ffffffff16565b6009819055508142336009546040516020016113d893929190612207565b6040516020818303038152906040528051906020012060001c6113fb9190611fc0565b9050919050565b60008082846114119190612244565b90508361ffff168161ffff16101561142c5761142b611f62565b5b8091505092915050565b600354426114449190611ff1565b8160020160046101000a81548163ffffffff021916908363ffffffff16021790555050565b600073ffffffffffffffffffffffffffffffffffffffff168173ffffffffffffffffffffffffffffffffffffffff16036114a257600080fd5b8073ffffffffffffffffffffffffffffffffffffffff1660008054906101000a900473ffffffffffffffffffffffffffffffffffffffff1673ffffffffffffffffffffffffffffffffffffffff167f8be0079c531659141344cd1fd0a4f28419497f9722a3daafe3b4186f6b6457e060405160405180910390a3806000806101000a81548173ffffffffffffffffffffffffffffffffffffffff021916908373ffffffffffffffffffffffffffffffffffffffff16021790555050565b6000428260020160049054906101000a900463ffffffff1663ffffffff1611159050919050565b60008082846115959190611ff1565b9050838110156115a8576115a7611f62565b5b8091505092915050565b8280546115be90611e80565b90600052602060002090601f0160209004810192826115e05760008555611627565b82601f106115f957803560ff1916838001178555611627565b82800160010185558215611627579182015b8281111561162657823582559160200191906001019061160b565b5b50905061163491906116be565b5090565b82805461164490611e80565b90600052602060002090601f01602090048101928261166657600085556116ad565b82601f1061167f57805160ff19168380011785556116ad565b828001600101855582156116ad579182015b828111156116ac578251825591602001919060010190611691565b5b5090506116ba91906116be565b5090565b5b808211156116d75760008160009055506001016116bf565b5090565b6000604051905090565b600080fd5b600080fd5b6000819050919050565b611702816116ef565b811461170d57600080fd5b50565b60008135905061171f816116f9565b92915050565b60006020828403121561173b5761173a6116e5565b5b600061174984828501611710565b91505092915050565b60008060408385031215611769576117686116e5565b5b600061177785828601611710565b925050602061178885828601611710565b9150509250929050565b600081519050919050565b600082825260208201905092915050565b60005b838110156117cc5780820151818401526020810190506117b1565b838111156117db576000848401525b50505050565b6000601f19601f8301169050919050565b60006117fd82611792565b611807818561179d565b93506118178185602086016117ae565b611820816117e1565b840191505092915050565b611834816116ef565b82525050565b600063ffffffff82169050919050565b6118538161183a565b82525050565b600061ffff82169050919050565b61187081611859565b82525050565b600060c082019050818103600083015261189081896117f2565b905061189f602083018861182b565b6118ac604083018761184a565b6118b9606083018661184a565b6118c66080830185611867565b6118d360a0830184611867565b979650505050505050565b600073ffffffffffffffffffffffffffffffffffffffff82169050919050565b6000611909826118de565b9050919050565b611919816118fe565b811461192457600080fd5b50565b60008135905061193681611910565b92915050565b600060208284031215611952576119516116e5565b5b600061196084828501611927565b91505092915050565b600081519050919050565b600082825260208201905092915050565b6000819050602082019050919050565b61199e816116ef565b82525050565b60006119b08383611995565b60208301905092915050565b6000602082019050919050565b60006119d482611969565b6119de8185611974565b93506119e983611985565b8060005b83811015611a1a578151611a0188826119a4565b9750611a0c836119bc565b9250506001810190506119ed565b5085935050505092915050565b60006020820190508181036000830152611a4181846119c9565b905092915050565b611a52816118fe565b82525050565b6000602082019050611a6d6000830184611a49565b92915050565b600080fd5b600080fd5b7f4e487b7100000000000000000000000000000000000000000000000000000000600052604160045260246000fd5b611ab5826117e1565b810181811067ffffffffffffffff82111715611ad457611ad3611a7d565b5b80604052505050565b6000611ae76116db565b9050611af38282611aac565b919050565b600067ffffffffffffffff821115611b1357611b12611a7d565b5b611b1c826117e1565b9050602081019050919050565b82818337600083830152505050565b6000611b4b611b4684611af8565b611add565b905082815260208101848484011115611b6757611b66611a78565b5b611b72848285611b29565b509392505050565b600082601f830112611b8f57611b8e611a73565b5b8135611b9f848260208601611b38565b91505092915050565b600060208284031215611bbe57611bbd6116e5565b5b600082013567ffffffffffffffff811115611bdc57611bdb6116ea565b5b611be884828501611b7a565b91505092915050565b60008115159050919050565b611c0681611bf1565b82525050565b6000602082019050611c216000830184611bfd565b92915050565b600080fd5b600080fd5b60008083601f840112611c4757611c46611a73565b5b8235905067ffffffffffffffff811115611c6457611c63611c27565b5b602083019150836001820283011115611c8057611c7f611c2c565b5b9250929050565b600080600060408486031215611ca057611c9f6116e5565b5b6000611cae86828701611710565b935050602084013567ffffffffffffffff811115611ccf57611cce6116ea565b5b611cdb86828701611c31565b92509250509250925092565b7f4e487b7100000000000000000000000000000000000000000000000000000000600052603260045260246000fd5b6000602082019050611d2b600083018461182b565b92915050565b611d3a81611bf1565b8114611d4557600080fd5b50565b600081519050611d5781611d31565b92915050565b600081519050611d6c816116f9565b92915050565b6000806000806000806000806000806101408b8d031215611d9657611d956116e5565b5b6000611da48d828e01611d48565b9a50506020611db58d828e01611d48565b9950506040611dc68d828e01611d5d565b9850506060611dd78d828e01611d5d565b9750506080611de88d828e01611d5d565b96505060a0611df98d828e01611d5d565b95505060c0611e0a8d828e01611d5d565b94505060e0611e1b8d828e01611d5d565b935050610100611e2d8d828e01611d5d565b925050610120611e3f8d828e01611d5d565b9150509295989b9194979a5092959850565b7f4e487b7100000000000000000000000000000000000000000000000000000000600052602260045260246000fd5b60006002820490506001821680611e9857607f821691505b602082108103611eab57611eaa611e51565b5b50919050565b7f4e487b7100000000000000000000000000000000000000000000000000000000600052601160045260246000fd5b6000611eeb826116ef565b91507fffffffffffffffffffffffffffffffffffffffffffffffffffffffffffffffff8203611f1d57611f1c611eb1565b5b600182019050919050565b6000611f338261183a565b9150611f3e8361183a565b92508263ffffffff03821115611f5757611f56611eb1565b5b828201905092915050565b7f4e487b7100000000000000000000000000000000000000000000000000000000600052600160045260246000fd5b7f4e487b7100000000000000000000000000000000000000000000000000000000600052601260045260246000fd5b6000611fcb826116ef565b9150611fd6836116ef565b925082611fe657611fe5611f91565b5b828206905092915050565b6000611ffc826116ef565b9150612007836116ef565b9250827fffffffffffffffffffffffffffffffffffffffffffffffffffffffffffffffff0382111561203c5761203b611eb1565b5b828201905092915050565b6000612052826116ef565b915061205d836116ef565b92508261206d5761206c611f91565b5b828204905092915050565b600081905092915050565b7f6b69747479000000000000000000000000000000000000000000000000000000600082015250565b60006120b9600583612078565b91506120c482612083565b600582019050919050565b60006120da826120ac565b9150819050919050565b60006120ef82611792565b6120f98185612078565b93506121098185602086016117ae565b80840191505092915050565b600061212182846120e4565b915081905092915050565b6000612137826116ef565b9150612142836116ef565b92508282101561215557612154611eb1565b5b828203905092915050565b6000606082019050612175600083018661182b565b818103602083015261218781856117f2565b9050612196604083018461182b565b949350505050565b6000819050919050565b6121b96121b4826116ef565b61219e565b82525050565b60008160601b9050919050565b60006121d7826121bf565b9050919050565b60006121e9826121cc565b9050919050565b6122016121fc826118fe565b6121de565b82525050565b600061221382866121a8565b60208201915061222382856121f0565b60148201915061223382846121a8565b602082019150819050949350505050565b600061224f82611859565b915061225a83611859565b92508261ffff0382111561227157612270611eb1565b5b82820190509291505056fea2646970667358221220950050f3433b7a8e25b2528cb13855366f002ad7d33d532e821bb185077fbaf264736f6c634300080d0033",
  "immutableReferences": {},
  "source": "pragma solidity >=0.5.0;\n\nimport \"./zombieHelper.sol\";\n\ncontract ZombieAttack is ZombieHelper {\n    using SafeMath for uint256;\n    using SafeMath16 for uint16;\n    using SafeMath32 for uint32;\n    uint256 randNonce = 0;\n    uint256 attackVictoryProbability = 70;\n\n    function randMod(uint256 _modulus) internal returns (uint256) {\n        randNonce = randNonce.add(1);\n        return\n            uint256(\n                keccak256(\n                    abi.encodePacked(block.timestamp, msg.sender, randNonce)\n                )\n            ) % _modulus;\n    }\n\n    function attack(uint256 _zombieId, uint256 _targetId)\n        external\n        onlyOwnerOf(_zombieId)\n    {\n        Zombie storage myZombie = zombies[_zombieId];\n        Zombie storage enemyZombie = zombies[_targetId];\n        uint256 rand = randMod(100);\n        if (rand <= attackVictoryProbability) {\n            myZombie.winCount = myZombie.winCount.add(1);\n            myZombie.level = myZombie.level.add(1);\n            enemyZombie.lossCount = enemyZombie.lossCount.add(1);\n            feedAndMultiply(_zombieId, enemyZombie.dna, \"zombie\");\n        } else {\n            myZombie.lossCount = myZombie.lossCount.add(1);\n            enemyZombie.winCount = enemyZombie.winCount.add(1);\n            _triggerCooldown(myZombie);\n        }\n    }\n}\n",
  "sourcePath": "/home/szymon/Programming_and_IT/CryptoZombies/contracts/zombieAttack.sol",
  "compiler": {
    "name": "solc",
    "version": "0.8.13+commit.abaa5c0e.Emscripten.clang"
  },
  "schemaVersion": "3.4.7",
  "updatedAt": "2022-04-27T23:21:44.880Z",
  "devdoc": {
    "kind": "dev",
    "methods": {
      "isOwner()": {
        "returns": {
          "_0": "true if `msg.sender` is the owner of the contract."
        }
      },
      "owner()": {
        "returns": {
          "_0": "the address of the owner."
        }
      },
      "renounceOwnership()": {
        "details": "Allows the current owner to relinquish control of the contract."
      },
      "transferOwnership(address)": {
        "details": "Allows the current owner to transfer control of the contract to a newOwner.",
        "params": {
          "newOwner": "The address to transfer ownership to."
        }
      }
    },
    "version": 1
  },
  "userdoc": {
    "kind": "user",
    "methods": {
      "renounceOwnership()": {
        "notice": "Renouncing to ownership will leave the contract without an owner. It will not be possible to call the functions with the `onlyOwner` modifier anymore."
      }
    },
    "version": 1
  }
}